:100000000C9463000C94D7150C9404160C948B007C
:100010000C948B000C948B000C948B000C948B0034
:100020000C948B000C948B000C948B000C94D512C8
:100030000C948B000C948B000C948B000C948B0014
:100040000C9431160C948B000C94DE180C9421192E
:100050000C948B000C948B000C948B000C948B00F4
:100060000C948B000C948B00000000070002010030
:100070000003040600000000000000000102040864
:100080001020408001020408102001020408102002
:10009000040404040404040402020202020203032E
:1000A00003030303000000002300260029000000D2
:1000B0000000250028002B0000000000240027007D
:1000C0002A00B010E41911241FBECFEFD8E0DEBF24
:1000D000CDBF13E0A0E0B1E0E4ECFCE302C005908A
:1000E0000D92AA3AB107D9F728E0AAEAB3E001C015
:1000F0001D92AE31B207E1F710E0C3E6D0E004C0D4
:100100002197FE010E94421EC136D107C9F70E9405
:10011000F6170C94601E0C940000DC01FB01129693
:100120008C911297808313968C91139781831496E8
:100130008C911497828315968C91159783831696CC
:100140008C911697848317968C91179785831896B0
:100150008C911897868319968C91878388E090E01C
:100160000895FC01DB014C9150E060E070E04283B7
:1001700053836483758311968C911197582B428316
:1001800053836483758312968C911297682B4283F4
:1001900053836483758313968C911397782B4283D2
:1001A00053836483758314964C91149750E060E0F8
:1001B00070E0468357836087718715968C911597F9
:1001C000582B468357836087718716968C911697B4
:1001D000682B468357836087718717968C91782B9D
:1001E000468357836087718788E090E0089582E1B5
:1001F00091E0089580E291E0089581E491E008950E
:100200008AE591E008958BE791E008958EE891E00A
:10021000089587E093E008958FEA91E00895FC0146
:1002200022818381FB012083818382E090E0089515
:10023000FB01218130E0322F22274081242BFC0159
:100240003383228382E090E0089580ED91E0089569
:100250008FED91E0089580E092E0089580E192E0D2
:100260000895DC01FB0112963C91129713962C9194
:10027000139714969C91149715968C91159730832B
:1002800021839283838316963C91169717962C911F
:10029000179718969C91189719968C9119973483F3
:1002A0002583968387831A963C911A971B962C91E7
:1002B0001B971C969C911C971D968C911D973087BF
:1002C0002187928783871E963C911E971F962C91BB
:1002D0001F9750969C91509751968C9151973487C7
:1002E00025879687878752963C91529753962C91F3
:1002F000539754969C91549755968C91308B218BA3
:10030000928B838B84E190E00895DC01FB01818175
:10031000428150E060E070E0BA0155274427582B35
:100320008081482B8381782B12964D935D936D933A
:100330007C9315978581468150E060E070E0BA01BA
:1003400055274427582B8481482B8781782B169674
:100350004D935D936D937C9319978185428550E011
:1003600060E070E0BA0155274427582B8085482B60
:100370008385782B1A964D935D936D937C931D978F
:100380008585468550E060E070E0BA015527442736
:10039000582B8485482B8785782B1E964D935D932B
:1003A0006D937C9351978189428950E060E070E0C1
:1003B000BA0155274427582B8089482B8389782BED
:1003C00052964D935D936D937C93559784E190E0A5
:1003D000089581E392E008958FE492E0089580E724
:1003E00092E0089585E992E00895FC0180A991A921
:1003F000089580E792E0089585E992E00895FC0170
:10040000EA54FD4F808108950F931F93CF93DF939C
:10041000EC0120E030E040EA50E46C8D7D8D8E8D63
:100420009F8D0E94451D6093100770931107809364
:1004300012079093130706EF13E0F80164A375A366
:1004400086A397A320E030E040E05FEB6C897D89D4
:100450008E899F890E94741B20E030E044E353E4BE
:100460000E94451D20E030E0A9010E94751B0E94FA
:10047000581C8AEA93E00E946F148C899D89AE898A
:10048000BF89F801848B958BA68BB78BDF91CF91B9
:100490001F910F9108950F931F9382E00E948E1574
:1004A000892B09F05CC08091ED039091EE03A0913F
:1004B000EF03B091F003892B8A2B8B2B09F442C0F8
:1004C0000E947B160091ED031091EE032091EF0343
:1004D0003091F003601B710B820B930B0E948E1CFA
:1004E00020E030E04AE754E40E94E61B9B01AC01A7
:1004F00066EA72E98BE29DE30E94E61B60931407B3
:10050000709315078093160790931707809114072F
:1005100090911507A0911607B091170780931407C3
:1005200090931507A0931607B093170740911407EF
:1005300050911507609116077091170785E297E0B3
:100540000E94341281E08093EC030E947B1660933A
:10055000ED037093EE038093EF039093F0031F91EC
:100560000F910895AF92BF92CF92DF92EF92FF92D8
:100570000F931F93CF93DF9300D000D01F92CDB77E
:10058000DEB78C016B01643671053CF0FC01EA5466
:10059000FD4F8081882309F478C0DA01ED91FC9148
:1005A0000190F081E02DB801695C7E4FCA01099588
:1005B0007801B0EDEB1ABEEFFB0A2FEFF7012083B5
:1005C0002EEF319620833196808331969083319639
:1005D000292F280F209520833196C082D801AA5C4C
:1005E000BE4FDC9245E050E020E030E0BC016A5FA5
:1005F0007F4F6417750734F0A1912A0F311D4F5FAB
:100600005F4FF7CF6C01F8E0CF0ED11C800F911F28
:10061000FC01E95CFE4F2095208329E1C21621E010
:10062000D206CCF45701C5018E199F098C159D0582
:1006300084F4D80112968D919C911397F5016191E4
:100640005F01DC01ED91FC910190F081E02D0995B5
:10065000EACFC6011CC08FE393E09A83898383E0CD
:100660008B8386EB92E09D838C83D801ED91FC9186
:100670000190F081E02DAE014F5F5F4F67E070E0C9
:10068000C80109958FEF9FEF02C080E090E00F90C6
:100690000F900F900F900F90DF91CF911F910F91BE
:1006A000FF90EF90DF90CF90BF90AF900895BF92F2
:1006B000CF92DF92EF92FF920F931F93CF93DF932E
:1006C0006B017C0120E030E040E152EC0E94E11B34
:1006D00087FD0EC020E030E040E152E4B601C701E2
:1006E0000E94401D18164CF08601DE2DCF2D09C04A
:1006F00000E010E0D0E1C2EC04C000E010E0D0E186
:10070000C2E4BB24B3949601A701B8018D2F9C2F9E
:100710000E94E11B811101C0B12CB0922407B801E5
:100720008D2F9C2FDF91CF911F910F91FF90EF9014
:10073000DF90CF90BF9008951092F1036CE370E0CA
:100740008DEA93E00E946F1464E670E080E090E030
:100750000E94AC166AE570E08DEA93E00E946F1487
:1007600064E670E080E090E00C94AC16AF92BF922B
:10077000CF92DF92EF92FF920F931F93CF93DF936D
:10078000EC0197FF07C08091F103882341F00E949C
:100790009C0305C0892B19F081E08093F103BE0111
:1007A000DD0F880B990B1F921F921F9221E92F9347
:1007B00027E3A22EB12CC12CD12C14E6E12EF12C72
:1007C00000E010E02CE93FEF4FEF5FEF0E940318CD
:1007D0000F900F900F900F908DEA93E0DF91CF91E3
:1007E0001F910F91FF90EF90DF90CF90BF90AF904F
:1007F0000C946F144F925F926F927F928F929F92A0
:10080000AF92BF92CF92DF92EF92FF92CF93DF939E
:1008100000D000D0CDB7DEB7209114073091150776
:1008200040911607509117076091100770911107BA
:1008300080911207909113070E94741B4B015C0179
:1008400060930C0770930D0780930E0790930F072A
:10085000209108073091090740910A0750910B0732
:100860000E94741B2B013C0160931C0770931D07B1
:1008700080931E0790931F0780912407882309F413
:1008800044C0C0901807D0901907E0901A07F09064
:100890001B0720E030E0A901C701B6010E94401DFE
:1008A000A701960118160CF05058C701B6010E9416
:1008B000E61B69837A838B839C83C0902007D0904A
:1008C0002107E0902207F090230720E030E0A90103
:1008D000C701B6010E94401DA701960118160CF031
:1008E0005058C701B6010E94E61B9B01AC0169810B
:1008F0007A818B819C810E94E11B811106C020E0DE
:1009000030E0A901C701B6010AC0A50194016091B8
:1009100020077091210780912207909123070E9460
:10092000751B609320077093210780932207909393
:100930002307209108013091090140910A0150914B
:100940000B01C501B4010E94451D6B017C01209182
:100950000401309105014091060150910701609119
:1009600020077091210780912207909123070E9410
:10097000451D9B01AC01C701B6010E94751B6B01AF
:100980007C012091000130910101409102015091C0
:100990000301C301B2010E94451D9B01AC01C701C7
:1009A000B6010E94751B6093180770931907809316
:1009B0001A0790931B0760930407709305078093B1
:1009C00006079093070760931604709317048093AB
:1009D0001804909319040E945703609304077093BE
:1009E000050780930607909307070E94581CCB01C8
:1009F0000F900F900F900F90DF91CF91FF90EF909D
:100A0000DF90CF90BF90AF909F908F907F906F902E
:100A10005F904F900C94B603CF92DF92EF92FF92CB
:100A20000F931F93CF93DF93CDB7DEB760970FB6C9
:100A3000F894DEBF0FBECDBF0E947B1628EE33E0D8
:100A400040E050E00E94E21D69017A019B01AC0187
:100A500080912E0490912F04A0913004B091310424
:100A60008C0D9D1DAE1DBF1D89879A87AB87BC87E6
:100A700060E472E48FE090E00E94B21D00913204C5
:100A8000109133042091340430913504DC01CB0102
:100A9000800F911FA21FB31F8D879E87AF87B88BD2
:100AA000BE01635F7F4FCE0109960E94CB1488E0A0
:100AB000FE013996DE01119601900D928A95E1F7BB
:100AC00088E0FE013196DE01199601900D928A951B
:100AD000E1F788E0FE013996AEEFB3E001900D92A8
:100AE0008A95E1F740911407509115076091160718
:100AF0007091170785E297E00E9434126093120408
:100B00007093130480931404909315048091EC0364
:100B1000811108C010921204109213041092140450
:100B2000109215048091E8039091E903DC01ED91A6
:100B3000FC916091E6037091E7030190F081E02D54
:100B400046EF53E009951092EC0360960FB6F894C7
:100B5000DEBF0FBECDBFDF91CF911F910F91FF90F0
:100B6000EF90DF90CF900895409126045091270494
:100B700060912804709129048091240490912504A7
:100B80000E945C191092CF061092CE061092D106E8
:100B90001092D0061092D5061092D4061092D30669
:100BA0001092D20680E091EEA0E0B0E0809326049F
:100BB00090932704A0932804B0932904ECE9F6E06D
:100BC00080E090E021913191232B81F4FC01EE0F24
:100BD000FF1FE456F94F20EB33E0318320838C591B
:100BE0009F4F9093B3038093B20304C00196893161
:100BF000910541F7EAE6F6E080E090E0219131913D
:100C0000232BB1F4FC01EE0FFF1FE659F94F22EE42
:100C100033E03183208383589F4F9093E703809381
:100C2000E60382E294E09093E9038093E80304C032
:100C300001968931910511F761E086E00E94221545
:100C400060E082E00E94221542E050E06BE472E036
:100C500080E00E94B71566E070E08DEA93E00E94A4
:100C6000341465E070E08AEA93E00E9434146AE587
:100C700070E08DEA93E00E946F1460ED77E080E011
:100C800090E00E94AC1660E070E08DEA93E00E9474
:100C90006F1460ED77E080E090E00E94AC1664EBAA
:100CA00070E08DEA93E00E946F1460ED77E080E0E1
:100CB00090E00E94AC166AE570E08DEA93E00E9435
:100CC0006F1460ED77E080E090E00C94AC16CF926A
:100CD000DF92EF92FF9220E030E06A017B01022E6A
:100CE00004C0F694E794D794C7940A94D2F7FC0111
:100CF000C192CF01285F3F4F2032310571F7FF903D
:100D0000EF90DF90CF900895EF92FF920F931F9393
:100D1000CF93DF938C01EB01FC0182818883838177
:100D2000898384818A8385818B8386818C83878173
:100D30008D8380858E8381858F8382858887838557
:100D4000898784858A8785858B87A685B785FD01F8
:100D500001900020E9F731977F01EA1AFB0AA70109
:100D600060E070E0CE010C960E946706F80166858F
:100D70007785A701CE0140960E94571EC701409675
:100D8000DF91CF911F910F91FF90EF900895EF9217
:100D9000FF920F931F93CF93DF937C01EB01029699
:100DA0000E9484068C01BE01680F791FC70142961C
:100DB0000E943101800F911FDF91CF911F910F9100
:100DC000FF90EF9008954F925F926F927F92AF9253
:100DD000BF92CF92DF92EF92FF920F931F93CF9328
:100DE000DF93EC017B018A81FB0180838B8181830E
:100DF0008C8182838D818383DB01179640E050E0F4
:100E0000BA01E4E0F0E04A805B806C807D808F0175
:100E10000C5F1F4F4415550566057705C0F48A859C
:100E20009B85E80FF91F3497D080218192818381BF
:100E3000FD013397D08231962083319690838C9335
:100E4000F8014F5F5F4F6F4F7F4F1496DCCFEE0D71
:100E5000FF1D8C8580838D8581838E8582838F8520
:100E6000838380E090E040E050E0BA014C845D84F0
:100E70006E847F84F701E00FF11F0C5F1F4F441554
:100E8000550566057705B8F4AC89BD89A80FB91F6B
:100E9000CC901196DC90119712963C911297139674
:100EA0002C91C082D182328323834F5F5F4F6F4F7B
:100EB0007F4F0496DBCF8E8980838F898183888DD5
:100EC0008283898D8383412C512C32018E899F89A5
:100ED000A88DB98D481659066A067B0680F5520121
:100EE000AA0CBB1CEC8DFD8DEA0DFB1DA081B18110
:100EF000FD0101900020E9F731976F01CA1ADB0A62
:100F0000A60160E070E0C701800F911F0E94670694
:100F10000C5F1F4F8C8D9D8DFC01EA0DFB1D6081C8
:100F20007181A601C701800F911F0E94571E0C0DF1
:100F30001D1DFFEF4F1A5F0A6F0A7F0AC7CFC80156
:100F4000DF91CF911F910F91FF90EF90DF90CF90A5
:100F5000BF90AF907F906F905F904F900895EF9209
:100F6000FF920F931F93CF93DF938C017B01EC01D2
:100F70008A81FB018193AB81BC81ED010990002046
:100F8000E9F72197CA1BDB0BAE0160E070E0CF01EF
:100F90000E946706F80163817481AE01C70105965E
:100FA0000E94571ECE010596DF91CF911F910F91A0
:100FB000FF90EF900895CF92DF92EF92FF920F9300
:100FC0001F93CF93DF936C01EB01FC018281888337
:100FD00083818983A481B581FD0101900020E9F717
:100FE00031978F010A1B1B0BA80160E070E0CE0156
:100FF00002960E946706F60164817581A801CE0100
:1010000006960E94571EC8010696F601A681B78172
:10101000FD0101900020E9F731977F01EA1AFB0AF0
:10102000A70160E070E08C0F9D1F0E946706065FBD
:101030001F4FF60166817781A701CE01800F911FB6
:101040000E94571E0E0D1F1DF601A085B185FD01E2
:1010500001900020E9F731977F01EA1AFB0AA70106
:1010600060E070E0CE01800F911F0E9467060C5F68
:101070001F4FF60160857185A701CE01800F911F7A
:101080000E94571EC8018E0D9F1DF6016285438583
:1010900034852585C80FD91F688349833A832B83FC
:1010A0000496DF91CF911F910F91FF90EF90DF9009
:1010B000CF900895CF92DF92EF92FF92FC011082C1
:1010C000118212821382DB0120E030E04D9150E06A
:1010D000022E02C0440F551F0A94E2F7052E000CA1
:1010E000660B770BC080D180E280F3804C295D29AC
:1010F0006E297F294083518362837383285F3F4F2A
:101100002032310519F7FF90EF90DF90CF900895CE
:101110008F929F92AF92BF92CF92DF92EF92FF9207
:101120000F931F93CF93DF9300D000D0CDB7DEB7DE
:101130007C018B01FB018191BF01F7018283CE010C
:1011400001960E945A0889819A81AB81BC814C0129
:101150005D01F5E08F0E911CA11CB11C680125E01A
:10116000C20ED11CA601401B510B60E070E0481577
:1011700059056A057B0548F4F60141916F019F010D
:1011800022503109F9014083EDCFF801E80FF91F32
:1011900014820C5F1F4FF7011483038305960F9091
:1011A0000F900F900F90DF91CF911F910F91FF90B3
:1011B000EF90DF90CF90BF90AF909F908F90089569
:1011C0008F929F92AF92BF92CF92DF92EF92FF9257
:1011D0000F931F93CF93DF9300D000D0CDB7DEB72E
:1011E0007C018B01FB01808190E0A0E0B0E0F70181
:1011F00082839383A483B583FB012181922BF70122
:1012000082839383A483B583FB012281A22BF70100
:1012100082839383A483B583FB012381B22BF701DF
:1012200082839383A483B583FB01848190E0A0E053
:10123000B0E0F70186839783A087B187FB01258102
:10124000922BF70186839783A087B187FB012681C4
:10125000A22BF70186839783A087B187FB012781A3
:10126000B22BF70186839783A087B187FB01808526
:1012700090E0A0E0B0E0F70182879387A487B5876C
:10128000FB012185922BF70182879387A487B5877D
:10129000FB012285A22BF70182879387A487B5875C
:1012A000FB012385B22BF70182879387A487B5873B
:1012B000645F7F4FCE0101960E945A0889819A810E
:1012C000AB81BC814C015D01F0E18F0E911CA11C32
:1012D000B11C680120E1C20ED11CA601401B510BBC
:1012E00060E070E0481559056A057B0548F4F60191
:1012F00041916F019F0122503109F9014083EDCFE7
:10130000F801E80FF91F1786015F1F4FF7011787D4
:10131000068740960F900F900F900F90DF91CF911E
:101320001F910F91FF90EF90DF90CF90BF90AF9003
:101330009F908F900895EF92FF920F931F93CF93FA
:10134000DF937C01EB0102960E94E0088C01BE0154
:10135000680F791FC70142960E948501800F911F77
:10136000DF91CF911F910F91FF90EF9008950F9310
:101370001F93CF93DF938C01EC012696CE010E9440
:101380009B09D8019E96ED91FC919F97CE01DF912C
:10139000CF911F910F9109944F925F926F927F921C
:1013A0008F929F92AF92BF92CF92DF92EF92FF9275
:1013B0000F931F93CF93DF93CDB7DEB72C970FB664
:1013C000F894DEBF0FBECDBF7C018B01DB018C9199
:1013D00090E0F7019383828311962C91922B938353
:1013E00082836E5F7F4FCE0109960E945A088984DE
:1013F0009A84AB84BC84B501A4014A5F5F4F6F4FF0
:101400007F4FF8013696CF01801B910BA0E0B0E032
:1014100084179507A607B70728F48191DF01129773
:101420008C93F1CFF801E80DF91D1582C8010596DE
:10143000D70115969C938E931497B4016A5F7F4FE2
:10144000600F711FCE0105960E945A08BAE08B0EFC
:10145000911C4D815E816F8178852401092C000CDF
:1014600066087708440E551E661E771EF801E80DC3
:10147000F91DCF01801B910BA0E0B0E0841595050C
:10148000A605B70528F48191DF0112978C93F1CF5F
:101490006401C40ED51EB8016C0D7D1DFB01319792
:1014A0001082C4010197800F911FF70197838683F3
:1014B000CE0101960E945A08A6014C5F5F4F4980F9
:1014C0005A806B807C804A01052E000CAA08BB085C
:1014D000840C951CA61CB71CF801E40FF51F9F0196
:1014E000201B310BC901A0E0B0E088159905AA05C1
:1014F000BB0528F48191DF0112978C93F0CFCA01CC
:10150000840D951DF801E80FF91FDF0111971C925A
:101510009A0121503109020F131FD70119961C930C
:101520000E9318972181428150E060E070E0BA018B
:1015300055274427522B2081422B2381722BF70100
:10154000428753876487758704962C960FB6F89464
:10155000DEBF0FBECDBFDF91CF911F910F91FF90E6
:10156000EF90DF90CF90BF90AF909F908F907F9043
:101570006F905F904F9008952F923F924F925F929D
:101580006F927F928F929F92AF92BF92CF92DF9293
:10159000EF92FF920F931F93CF93DF93CDB7DEB7F8
:1015A00028970FB6F894DEBF0FBECDBF8C015B014C
:1015B000DB018C9111969C9111971296CC90129709
:1015C000D12CE12CF12C7601DD24CC24D92AC82A97
:1015D00013968C91F82AF80182819381A481B581B8
:1015E0008C159D05AE05BF0570F4B601660F771F1B
:1015F000660F771F828593850E940D17D8011B9671
:101600009C938E931A97F801C282D382E482F5826A
:10161000D5011796C12CD12C7601F4E08F2E912C98
:1016200098012A5F3F4FF80142815381648175819F
:10163000C4010496C416D506E606F70680F54C915B
:1016400050E060E070E0742F662755274427FD01C5
:101650003397E0814E2BFD013297E0815E2BFD0137
:101660003197E0816E2BF80146835783608771873D
:101670004C01089742855385840F951FF9014081DD
:10168000518162817381FC01408351836283738342
:10169000FFEFCF1ADF0AEF0AFF0A1496C4CFF40156
:1016A000EA0DFB1D20813181C280D12CE12CF12C6F
:1016B0007601DD24CC24D32AC22A2381F22A4C01CC
:1016C000F80184859585A685B7858C159D05AE05A1
:1016D000BF0570F4B601660F771F660F771F848908
:1016E00095890E940D17D80155969C938E93549717
:1016F000F801C486D586E686F78620E030E0C12C66
:10170000D12C7601D8015096F8014485558566851F
:101710007785F501E80DF91DC4010496C416D506B8
:10172000E606F70648F59180428150E060E070E0FF
:10173000BA0155274427592990804929E3817E2BF6
:10174000F801408B518B628B738B4C018489958996
:10175000FC01E20FF31F4D915D916D917C91139708
:101760004083518362837383FFEFCF1ADF0AEF0A4E
:10177000FF0A2C5F3F4FC8CF20813181C280D12C1E
:10178000E12CF12C7601DD24CC24D32AC22A23813A
:10179000F22A4C01F80186899789A08DB18D8C15AC
:1017A0009D05AE05BF0560F4B601660F771F848DF9
:1017B000958D0E940D17D8015D969C938E935C9732
:1017C000F801C68AD78AE08EF18E412C512C320165
:1017D0001801FAE12F0E311CF80186899789A08D36
:1017E000B18D481659066A067B0608F05AC0B50145
:1017F000680D791DCE0101960E945A0894012C5F54
:101800003F4FC980DA80EB80FC80C901032E000CB9
:10181000AA0BBB0BAC01BD014C0D5D1D6E1D7F1DE8
:101820004D835E836F837887F501E20FF31FAF016D
:101830004A195B09CA01A0E0B0E04D815E816F8169
:10184000788584179507A607B70728F44191DF012B
:1018500012974C93ECCFC9018C0D9D1DF501E80F3B
:10186000F91F31971082215031092A0D3B1DD801F3
:101870005B963C932E935A974C01C201880F991F97
:101880005C96ED91FC915D97E80FF91FD1018D9168
:101890009C9191838083BFEF4B1A5B0A6B0A7B0A92
:1018A0009BCFC40128960FB6F894DEBF0FBECDBF04
:1018B000DF91CF911F910F91FF90EF90DF90CF902C
:1018C000BF90AF909F908F907F906F905F904F9060
:1018D0003F902F9008950F931F93CF93DF93CDB731
:1018E000DEB72A970FB6F894DEBF0FBECDBF8C01CE
:1018F00087E293E09A8389831B821C821D821E8269
:101900001F82188619861A86D801ED91FC910190E4
:10191000F081E02DAE014F5F5F4F6AE070E0C801DB
:1019200009950E947B16F8016087718782879387EB
:101930002A960FB6F894DEBF0FBECDBFDF91CF91D0
:101940001F910F9108954F925F926F927F92AF9285
:10195000BF92CF92DF92EF92FF920F931F93CF939C
:10196000DF93CDB7DEB72E970FB6F894DEBF0FBE6C
:10197000CDBF8C0183E393E09A8389831C821B8211
:101980008EEE92E09E838D8398878F839A878987D6
:101990001B861C861D861E86680188EBC81A8DEF83
:1019A000D80A7801A6E8EA1AADEFFA0A98E1492EBA
:1019B00055245394612C712CD601ED91FC913097F4
:1019C000B9F1848195819C838B83808191819E83F1
:1019D0008D8382819381DC01ED91FC910480F581FE
:1019E000E02D099598878F83D601ED91FC91828136
:1019F0009381DC01ED91FC910680F781E02D099542
:101A00009A8789874B865C866D867E86F801808101
:101A10009181F601A081B18118966D917C91199701
:101A2000DC01ED91FC91AE014F5F5F4FC80109955C
:101A3000B2E0CB0ED11CCE14DF0409F0BDCF68019B
:101A4000E4E5CE1AEDEFDE0A88E1482E55245394E2
:101A5000612C712CF701A081B1811097E1F11296F0
:101A60008D919C9113979C838B8314968D919C915F
:101A700015979E838D83ED91FC9111970480F581DC
:101A8000E02DCD01099598878F83D7018D919C9189
:101A9000DC01ED91FC910680F781E02D09959A8794
:101AA00089874B865C866D867E86D801ED91FC9198
:101AB000A080B180F70180819181DC01ED91FC91E2
:101AC0000280F381E02D0995AE014F5F5F4FBC01AD
:101AD000C801F5010995F2E0EF0EF11CEC14FD04CC
:101AE00009F0B8CFF801EA54FD4F81E080832E96CB
:101AF0000FB6F894DEBF0FBECDBFDF91CF911F911F
:101B00000F91FF90EF90DF90CF90BF90AF907F90BC
:101B10006F905F904F9008958F929F92AF92BF9277
:101B2000CF92DF92EF92FF920F931F93CF93DF93A9
:101B3000CDB7DEB72A970FB6F894DEBF0FBECDBF84
:101B40008C015B0187E293E09A8389831B821C826C
:101B50001D821E821F82188619861A860E947B1695
:101B6000F801C084D184E284F3849B01AC012C1978
:101B70003D094E095F0969017A01B501CE0101965F
:101B80000E94B10088EE882E83E0982EA12CB12C03
:101B9000C701B601A50194010E94E21DCB80DC8043
:101BA000ED80FE80C20ED31EE41EF51ECB82DC82C9
:101BB000ED82FE829B01AC0160E472E48FE090E074
:101BC0000E94B21DCF80D884E984FA84DC01CB0165
:101BD0008C0D9D1DAE1DBF1D8F839887A987BA8769
:101BE0000E947B16CB80DC80ED80FE8031E0C31A42
:101BF000D108E108F108A50194010E94E21DC21A72
:101C0000D30AE40AF50AF801C486D586E686F78683
:101C1000CF80D884E984FA84F6E3DF1AF5E6EF0A88
:101C2000F4ECFF0A9B01AC0160E472E48FE090E009
:101C30000E94B21DC61AD70AE80AF90AF801C08A3A
:101C4000D18AE28AF38AB801605F7F4FC8010C969F
:101C50000E94CB140E947B16F801E554FD4F60836F
:101C60007183828393832A960FB6F894DEBF0FBEEA
:101C7000CDBFDF91CF911F910F91FF90EF90DF903B
:101C8000CF90BF90AF909F908F9008952F923F92EA
:101C90004F925F926F927F928F929F92AF92BF927C
:101CA000CF92DF92EF92FF920F931F93CF93DF9328
:101CB000CDB7DEB760970FB6F894DEBF0FBECDBFCD
:101CC000988B8F870E947B164B015C012F8538898A
:101CD00025543D4F3E832D83F90180819181A2815E
:101CE000B381A5019401281B390B4A0B5B0BDA0168
:101CF000C901893F9A42A105B10528F0EF85F8890D
:101D0000EA54FD4F10820F85188904551D4FD801E4
:101D10008D919C91892B81F0EF85F889E154FD4FDD
:101D200080819181A281B38188159905AA05BB059F
:101D300018F4F801118210826F847888FCE46F1A1D
:101D4000FDEF7F0A2F85388920553D4F3A8329833F
:101D5000CF84D88838E1C30ED11C4F8558894A54A6
:101D60005D4F58874F832F8538892C533D4F3A87D5
:101D700029874F8558894D535D4F5C874B87EF848A
:101D8000F88852E5E51A5DEFF50A2F8538892E545B
:101D90003D4F3C832B834F85588941545D4F5E876F
:101DA0004D871401250154E1250E311C411C511CA5
:101DB000EF85F88984899589A689B789892B8A2B2B
:101DC0008B2B89F4AF85B88912968D919C911397CE
:101DD000DC01ED91FC910680F781E02D09959C01D5
:101DE00097FF15C037C10E947B16DC01CB01881913
:101DF0009909AA09BB09EF85F8892489358946899B
:101E00005789281739074A075B07E0F64BC1D3010A
:101E10008D919C911197820F931F8D939C93F80144
:101E20004081518147305105D9F4AB81BC818D91FE
:101E30009C911197AC014F5F5F4F4D935C93EF8581
:101E4000F889E80FF91F208FF701808191810197B0
:101E500091838083892B09F0ABCF88E090E02FC07D
:101E60004115510521F52F3F310569F481E090E0DE
:101E7000F80191838083AD85BE852D923D924D9270
:101E80005C92139795CF0E947B16DC01CB018819D9
:101E90009909AA09BB0989389341A105B10508F43C
:101EA00087CFEF85F889EA54FD4F1082FBC041309F
:101EB0005105B1F42E3F310531F482E090E0D801B4
:101EC0008D939C9375CFF80111821082AF81B885F4
:101ED0008C9181116DCF8F8598890E946B0C68CF92
:101EE0004230510569F4F70131832083AB81BC8115
:101EF0001D921C9283E090E0F801918380832EC0B4
:101F00004330510561F4322F2227F70180819181FE
:101F1000280F391F3183208384E090E0D0CF4430F4
:101F2000510581F460E071E00E94CE1D8F3F910564
:101F300031F485E090E0F8019183808339CF1182FC
:101F4000108236CF4530510569F4E981FA81318339
:101F50002083E6E0F0E0D801ED93FC93D3012D93CC
:101F60003C9326CF4630510599F4322F2227E98140
:101F7000FA8180819181280F391F31832083E7E026
:101F8000F0E0D801ED93FC93D7018D919C9162CF45
:101F90004830510509F00CCFF8011182108260E041
:101FA00071E00E94CE1D8F3F910509F001CFA981FC
:101FB000BA818D919C910097C9F48F8598890E9470
:101FC0006B0C8F8598890E94A30CEF85F889E954E2
:101FD000FD4F80829182A282B382ED81FE81808258
:101FE0009182A282B3828FEF9FEF61C08A30910508
:101FF00031F4B6018F8598890E948C0DD9CE863038
:10200000910551F4B60189859A850E94BC0A81E048
:10201000AB85BC858C93CCCE8B30910521F4EF81C0
:10202000F8851082C5CEFC01E752FF4FEE0FFF1F6F
:102030002F853889E20FF31F80819181009709F481
:10204000B7CEDC01ED91FC910190F081E02DB6015D
:102050000995AECEEF85F889EA54FD4F808188233B
:1020600021F10F85188909541D4FF8018081918154
:10207000A281B381A5019401281B390B4A0B5B0B8C
:10208000DA01C901853C9940A105B10570F08F8541
:1020900098890E946B0CD8018D929D92AD92BC9252
:1020A000139703C08EEF9FEF02C080E090E0609630
:1020B0000FB6F894DEBF0FBECDBFDF91CF911F9159
:1020C0000F91FF90EF90DF90CF90BF90AF909F90D7
:1020D0008F907F906F905F904F903F902F900895DA
:1020E000CF92DF92EF92FF9282E294E00E94460E3E
:1020F0000E947B166B017C018091F2039091F303A7
:10210000A091F403B091F503A7019601281B390BA8
:102110004A0B5B0B2436310541055105E0F00E9466
:10212000FA038091F2039091F303A091F403B0912C
:10213000F503A7019601281B390B4A0B5B0BCA015B
:10214000B9010E940C05C092F203D092F303E09211
:10215000F403F092F503FF90EF90DF90CF90089595
:10216000CF92DF92EF92FF920F931F938FE6C82ECC
:1021700082E1D82E83E8E82E8AE3F82E00E010E012
:1021800020E83EE3B901A80185E297E00E941A1217
:1021900087E893E0909323048093220480E797E0FC
:1021A000909325048093240480E091EEA0E0B0E0B9
:1021B0008093260490932704A0932804B0932904C5
:1021C0001092D8068BE493E09093E7068093E6069E
:1021D0001092E8061092E9061092EA061092EB06B9
:1021E0001092F1061092F0061092F2061092F30689
:1021F0001092F4061092F5061092FB061092FA0661
:102200001092FC061092FD061092FE061092FF0638
:102210001092030710920207EAE6F6E0119211927B
:1022200086E0EC39F807D1F7ECE9F6E0119211926B
:1022300086E0EE3CF807D1F7EAE3F4E0119285E09E
:10224000E235F807D9F7E2E5F5E0119286E0EA36E3
:10225000F807D9F710923604109237041092380418
:102260001092390487E593E090931F0480931E0435
:1022700010922104109220046BE773E07093F7032F
:102280006093F60343E653E05093F9034093F80359
:102290001092FA031092FB031092FC031092FD03BC
:1022A0001092FE031092FF0310920004109201049A
:1022B0001092020410920304109204041092050478
:1022C0002EEE32E030930704209306048FE693E06D
:1022D000909309048093080410920A0410920B044E
:1022E00010920C0410920D0410920E0410920F0420
:1022F0001092100410921104109212041092130400
:1023000010921404109215041092160410921704DF
:10231000109218041092190410921A0410921B04BF
:1023200010921C0410921D04EFEEF2E0F093E30310
:10233000E093E203E6EFF3E0F093E503E093E403D8
:102340001092EB031092EA03E1E9F3E0F093B1039A
:10235000E093B0037093B7036093B6035093B9034F
:102360004093B8031092BA031092BB031092BC03BF
:102370001092BD031092BE031092BF031092C003CF
:102380001092C1031092C2031092C3031092C403AF
:102390001092C5033093C7032093C6039093C903DB
:1023A0008093C8031092CA031092CB031092CC03FF
:1023B0001092CD031092CE031092CF031092D0034F
:1023C0001092D1031092D2031092D3031092D4032F
:1023D0001092D5031092D6031092D7031092D8030F
:1023E0001092D9031092DA031092DB031092DC03EF
:1023F0001092DD0384E092E09093DF038093DE038C
:1024000081E090E09093E1038093E00389EF92E014
:102410009093B5038093B4038DEA93E00E949613E2
:102420008AEA93E01F910F91FF90EF90DF90CF9099
:102430000C949613CF92DF92EF92FF920F931F931B
:10244000FC01408351836283738304831583268355
:102450003783C086D186E286F3861F910F91FF9065
:10246000EF90DF90CF9008954F925F926F927F929E
:102470008F929F92AF92BF92CF92DF92EF92FF9294
:102480000F931F93CF93DF9300D000D0CDB7DEB76B
:102490008C016A017B01DC0114968D919D910D9058
:1024A000BC91A02D89839A83AB83BC83F8012081E2
:1024B000318142815381BC01CD010E94751B9B017A
:1024C000AC0169817A818B819C810E94E61B2B0182
:1024D0003C01D80154966D937D938D939C935797AF
:1024E00050968D909D90AD90BC905397A50194010E
:1024F000C701B6010E94741B9B01AC01C301B2016C
:102500000E94451D9B01AC01C501B4010E94751BD1
:102510006B017C01F8016487758786879787A30123
:10252000920160E070E080E89FE30E94741B2981C3
:102530003A814B815C810E94451D2B013C01A70122
:102540009601C501B4010E94741B9F77D8011896AB
:102550002D913D914D915C911B970E94451D9B01D2
:10256000AC01C301B2010E94751BF801648375833D
:1025700086839783C08AD18AE28AF38AC701B6012B
:102580000F900F900F900F90DF91CF911F910F91AF
:10259000FF90EF90DF90CF90BF90AF909F908F9083
:1025A0007F906F905F904F9008951F920F920FB69B
:1025B0000F9211242F933F934F935F936F937F93C9
:1025C0008F939F93AF93BF93EF93FF9380913E07B9
:1025D00087FF05C010928500109284001BC02091D7
:1025E0003E07022E000C330B80913D0790E0281728
:1025F000390784F480913E07082E000C990BFC01EA
:10260000EE0FFF1F8E0F9F1FFC01E15CF84F8081D2
:1026100086FD15C080913E078F5F80933E07209115
:102620003E07022E000C330B80913D0790E02817E7
:102630003907C4F480913E078C3064F113C0809157
:102640003E07082E000C990BFC01EE0FFF1F8E0FAA
:102650009F1FFC01E15CF84F808160E08F730E9456
:102660005E15D8CF809184009091850004968032C9
:102670009E4418F480E29EE405C08091840090910D
:102680008500049690938900809388008FEF809353
:102690003E073BC0209184003091850080913E0729
:1026A000082E000C990BFC01EE0FFF1F8E0F9F1FD1
:1026B000FC01E15CF84F81819281820F931F90931E
:1026C00089008093880080913E07082E000C990BAA
:1026D000FC01EE0FFF1F8E0F9F1FFC01E15CF84F06
:1026E000808186FF12C080913E07082E000C990B56
:1026F000FC01EE0FFF1F8E0F9F1FFC01E15CF84FE6
:10270000808161E08F730E945E15FF91EF91BF9110
:10271000AF919F918F917F916F915F914F913F9179
:102720002F910F900FBE0F901F901895FC01909164
:102730003D079C30A0F481E0890F80933D07908392
:10274000892F90E0FC01EE0FFF1F8E0F9F1FFC01F1
:10275000E15CF84F88EB9BE09283818308958FEFD3
:1027600080830895DF92EF92FF920F931F93CF9390
:10277000DF93EC01D62E7A01890188818C3008F034
:102780006AC061E08D2D0E9422158881E82FF0E05B
:102790009F01220F331FE20FF31FE15CF84F9D2DC5
:1027A0009F732081207CD22ED92AD08260E272E0F1
:1027B000AB014E195F0957FF02C04D5F5F4F559542
:1027C000479555954795498340E659E09A01201B66
:1027D000310B37FF02C02D5F3F4F3595279535955B
:1027E00027952A836CE00E94C21D9CE0899FB0015E
:1027F000112440E050E09A01260F371FF901EE0F37
:10280000FF1F2E0F3F1FF901E15CF84F908196FDED
:1028100016C04F5F5F4F4C30510569F781110FC0F3
:102820001092800082E080938100109285001092C7
:102830008400B19A80916F00826080936F00E8817C
:10284000F0E0CF01880F991FE80FF91FE15CF84F06
:102850008081806480838881DF91CF911F910F9167
:10286000FF90EF90DF90089520E639E040E252E0DB
:102870000C94B213FC0190819C3080F5818128E892
:1028800030E0281B310987FD3395220F331F220FBB
:10289000331F621773077CF0828128E532E0281B22
:1028A000310987FD3395220F331F220F331F621723
:1028B00073070CF49B014FB7F894892F90E0FC014B
:1028C000EE0FFF1F8E0F9F1FFC01E15CF84F22509F
:1028D0003109220F331F328321834FBF0895AF92F6
:1028E000BF92CF92DF92EF92FF920F931F93CF93FD
:1028F000DF93EC01603282E078070CF03FC077FD97
:1029000006C0653B71052CF064EB70E002C060E02E
:1029100070E0898128E830E05901A81AB10887FDE4
:10292000B394AA0CBB1CAA0CBB1C0B2C000CCC082F
:10293000DD08072E000C880B990B2A8108E512E0B0
:10294000021B110927FD1395000F111F000F111F06
:10295000012E000C220B330B3F932F931F930F93E9
:1029600014EBE12EF12C00E010E020E030E0A901B2
:102970000E9403180F900F900F900F90CE01DF91DF
:10298000CF911F910F91FF90EF90DF90CF90BF906C
:10299000AF900C943A14CF92DF92EF92FF920F9384
:1029A0001F93CF93DF938C01EB01688179818A813A
:1029B0009B8120E03AEC4AE95BE30E94E21DF801CA
:1029C000C080D180E280F380C20ED31EE41EF51ECB
:1029D000C082D182E282F382688379838A839B8377
:1029E000DF91CF911F910F91FF90EF90DF90CF90EB
:1029F0000895833081F028F4813099F08230A1F07D
:102A000008958630A9F08730B9F08430D1F48091F0
:102A100080008F7D03C0809180008F77809380003D
:102A2000089584B58F7702C084B58F7D84BD0895E5
:102A30008091B0008F7703C08091B0008F7D80932C
:102A4000B0000895CF93DF9390E0FC01E458FF4F6E
:102A50002491FC01E057FF4F8491882361F190E0BD
:102A6000880F991FFC01E854FF4FC591D491FC01D8
:102A7000E255FF4FA591B491611109C09FB7F89439
:102A80008881209582238883EC912E230BC06230AD
:102A900061F49FB7F8943881822F809583238883CF
:102AA000EC912E2B2C939FBF06C08FB7F894E88132
:102AB0002E2B28838FBFDF91CF9108951F93CF9343
:102AC000DF93282F30E0F901E859FF4F8491F90195
:102AD000E458FF4FD491F901E057FF4FC491CC2344
:102AE000C9F0162F81110E94F914EC2FF0E0EE0FBF
:102AF000FF1FE255FF4FA591B4918FB7F8941111C4
:102B000005C09C91ED2FE095E92302C0EC91ED2BDF
:102B1000EC938FBFDF91CF911F910895CF93DF93F7
:102B2000282F30E0F901E859FF4F8491F901E4586A
:102B3000FF4FD491F901E057FF4FC491CC2391F09E
:102B400081110E94F914EC2FF0E0EE0FFF1FEC55FD
:102B5000FF4FA591B491EC91ED2381E090E021F439
:102B600080E002C080E090E0DF91CF910895823054
:102B7000E8F4E82FF0E0EE0FFF1FED59F84F7183F6
:102B80006083813041F0809169008C7F482B4093B5
:102B90006900E89A089580916900440F551F440F19
:102BA000551F837F482B40936900E99A08951F922F
:102BB0000F920FB60F9211242F933F934F935F9371
:102BC0006F937F938F939F93AF93BF93EF93FF93F5
:102BD0008091630790916407892B29F0E091630746
:102BE000F09164070995FF91EF91BF91AF919F918B
:102BF0008F917F916F915F914F913F912F910F90A6
:102C00000FBE0F901F9018951F920F920FB60F9244
:102C100011242F933F934F935F936F937F938F93E1
:102C20009F93AF93BF93EF93FF938091650790912C
:102C30006607892B29F0E0916507F09166070995F1
:102C4000FF91EF91BF91AF919F918F917F916F9184
:102C50005F914F913F912F910F900FBE0F901F905A
:102C600018951F920F920FB60F9211242F933F9336
:102C70008F939F93AF93BF9380916807909169075B
:102C8000A0916A07B0916B073091670723E0230F8B
:102C90002D3720F40196A11DB11D05C026E8230F94
:102CA0000296A11DB11D209367078093680790933A
:102CB0006907A0936A07B0936B0780916C079091A6
:102CC0006D07A0916E07B0916F070196A11DB11D10
:102CD00080936C0790936D07A0936E07B0936F0776
:102CE000BF91AF919F918F913F912F910F900FBE08
:102CF0000F901F9018952FB7F89460916807709106
:102D0000690780916A0790916B072FBF08953FB7BD
:102D1000F89480916C0790916D07A0916E07B09127
:102D20006F0726B5A89B05C02F3F19F00196A11D7E
:102D3000B11D3FBFBA2FA92F982F8827820F911D51
:102D4000A11DB11DBC01CD0142E0660F771F881F98
:102D5000991F4A95D1F70895CF92DF92EF92FF9293
:102D6000CF93DF936B017C010E948716EB01C114A6
:102D7000D104E104F10479F00E9487166C1B7D0BED
:102D8000683E7340A0F381E0C81AD108E108F10859
:102D9000C851DC4FECCFDF91CF91FF90EF90DF90E7
:102DA000CF900895789484B5826084BD84B58160A5
:102DB00084BD85B5826085BD85B5816085BDEEE643
:102DC000F0E0808181608083E1E8F0E01082808122
:102DD00082608083808181608083E0E8F0E0808190
:102DE00081608083E1EBF0E0808184608083E0EBB0
:102DF000F0E0808181608083EAE7F0E08081846098
:102E000080838081826080838081816080838081F3
:102E1000806880831092C10008956F927F928F9294
:102E20009F92AF92BF92CF92DF92EF92FF920F9359
:102E30001F93CF93DF93EC01009789F4CB01DF91CF
:102E4000CF911F910F91FF90EF90DF90CF90BF90A7
:102E5000AF909F908F907F906F900C941F1AFC0101
:102E6000E60FF71F9C0122503109E217F30708F41F
:102E7000ACC0D9010D911C91119706171707B0F03E
:102E80000530110508F49FC0C801049786179707FD
:102E900008F499C002501109061B170B01931193F6
:102EA0006D937C93CF010E94B41A8DC05B01A01A70
:102EB000B10A4C01800E911EA0911C08B0911D0812
:102EC00040E050E0E12CF12C109709F44AC0A8151D
:102ED000B905D1F56D907C901197630182E0C80E21
:102EE000D11CCA14DB0480F1A3014A195B096A01F1
:102EF00082E0C80ED11C1296BC9012971396AC912A
:102F0000B5E0CB16D10440F0B282A3835183408355
:102F1000D9016D937C930AC00E5F1F4FC301800FD0
:102F2000911FF90191838083EB2DFA2FE114F104B5
:102F300031F0D7011396FC93EE93129744C0F093AF
:102F40001D08E0931C083FC08D919C911197481774
:102F5000590708F4AC017D0112960D90BC91A02D8B
:102F6000B3CF80911A0890911B0888159905E1F458
:102F700046175707C8F480910C0190910D010097F6
:102F800041F48DB79EB74091100150911101841BFF
:102F9000950BE817F907C8F4F0931B08E0931A089B
:102FA000F901718360830FC0CB010E941F1A7C015D
:102FB000009759F0A801BE010E94571ECE010E9441
:102FC000B41AC70104C0CE0102C080E090E0DF91D6
:102FD000CF911F910F91FF90EF90DF90CF90BF9016
:102FE000AF909F908F907F906F9008950E94D2161F
:102FF0000E94B405C8E1D9E10E9470102097E1F366
:103000000E941819F9CF4F925F926F927F92AF9200
:10301000BF92CF92DF92EF92FF920F931F93CF93C5
:10302000DF93CDB7DEB729013A019B01AC0124192A
:1030300035094609570989899A89AB89BC89BC0138
:10304000CD016A197B098C099D090E94B21DA80156
:10305000970124193509460957090E94041ECA011F
:10306000B9016A0D7B1D8C1D9D1DDF91CF911F91B4
:103070000F91FF90EF90DF90CF90BF90AF907F9037
:103080006F905F904F900895FC0124853585F9017C
:10309000E05CFF4F80819181329620813181821BDB
:1030A000930B8F7399270895DC011C96ED91FC9189
:1030B0001D97DF01A05CBF4F2D913C911197129697
:1030C0008D919C9111972817390739F08D919C911A
:1030D000E80FF91F808190E008958FEF9FEF08952A
:1030E000FC01A485B585FD01E05CFF4F20813181A5
:1030F0003296808191812817390779F080819181FA
:10310000A80FB91F8C91208131812F5F3F4F2F7302
:1031100033273183208390E008958FEF9FEF089548
:10312000FC0181A1882329F0A489B5898C9186FFAF
:10313000FBCF11A208950F931F93CF93DF93FC0150
:10314000A685B7858D01005C1F4FE80188819981B4
:1031500001968F739927AD014E5B5F4FEA0128817D
:10316000398182179307D1F3E80128813981A20FB1
:10317000B31F6C93A685B785A05CBF4F11969C9337
:103180008E93A689B7892C9181E090E0078C02C0CC
:10319000880F991F0A94E2F7822B8C9381E081A318
:1031A0000488F589E02D80818064808381E090E04F
:1031B000DF91CF911F910F91089508951F920F9263
:1031C0000FB60F9211242F934F935F938F939F937A
:1031D000EF93FF938091C00082FD1CC02091C60038
:1031E000809116089091170801968F739927409146
:1031F0001808509119088417950771F0E091160886
:10320000F0911708EA52F84F2083909317088093A3
:10321000160802C08091C600FF91EF919F918F9197
:103220005F914F912F910F900FBE0F901F901895A7
:1032300080E797E00E944418892B11F00C94DD1868
:1032400008951F920F920FB60F9211242F933F9360
:103250008F939F93EF93FF932091D2073091D307E1
:103260008091D4079091D5072817390731F48091C0
:10327000C1008F7D8093C10014C0E091D407F0910C
:10328000D507EE56F84F20818091D4079091D5074D
:1032900001968F7399279093D5078093D407209335
:1032A000C600FF91EF919F918F913F912F910F90C9
:1032B0000FBE0F901F901895CF92DF92EF92FF9262
:1032C0000F931F93CF93DF93EC016A017B014115AC
:1032D000514E6105710509F1EC89FD8981E090E0AD
:1032E00008A002C0880F991F0A94E2F7808360E06B
:1032F00079E08DE390E0A70196010E94E21D89012B
:103300009A01015011092109310936952795179520
:103310000795980101151041A8F0EC89FD891082EC
:1033200060E874E88EE190E0A70196010E94E21D3A
:10333000DA01C9010197A109B109B695A795979539
:1033400087959C01E889F9893083EA89FB89208384
:1033500019A2EE89FF89408181E090E09C010C8CEC
:1033600002C0220F331F0A94E2F7242B2083EE8938
:10337000FF8940819C010D8C02C0220F331F0A94EB
:10338000E2F7242B2083EE89FF8940819C010E8C7B
:1033900002C0220F331F0A94E2F7242B2083EE8908
:1033A000FF8920810F8C02C0880F991F0A94E2F7D1
:1033B000809582238083DF91CF911F910F91FF90A1
:1033C000EF90DF90CF900895E0E7F7E0138212824C
:1033D00088EE93E0A0E0B0E084839583A683B78372
:1033E0008DE993E09183808386ED97E095878487CC
:1033F00082E997E09787868785EC90E0918B808BB8
:1034000084EC90E0938B828B80EC90E0958B848BA6
:1034100081EC90E0978B868B82EC90E0918F808F8F
:1034200086EC90E0938F828F84E0848F83E0858F99
:1034300087E0868F85E0878F81E080A30895CF9312
:10344000DF938230910510F482E090E0E0911C0857
:10345000F0911D0820E030E0C0E0D0E0309711F19D
:103460004081518148175907C0F04817590761F446
:1034700082819381209719F09B838A832BC090933C
:103480001D0880931C0826C02115310519F042172C
:10349000530718F49A01BE01DF01EF010280F381A6
:1034A000E02DDCCF2115310509F1281B390B243023
:1034B000310590F412968D919C91139761157105C9
:1034C00021F0FB019383828304C090931D088093B5
:1034D0001C08FD01329644C0FD01E20FF31F8193E9
:1034E0009193225031092D933C933AC020911A08B0
:1034F00030911B08232B41F420910E0130910F01D4
:1035000030931B0820931A0820910C0130910D0173
:103510002115310541F42DB73EB74091100150916E
:103520001101241B350BE0911A08F0911B08E217DA
:10353000F307A0F42E1B3F0B2817390778F0AC01D6
:103540004E5F5F4F2417350748F04E0F5F1F5093B3
:103550001B0840931A088193919302C0E0E0F0E0C9
:10356000CF01DF91CF9108950F931F93CF93DF93F6
:10357000009709F48CC0FC013297138212820091EB
:103580001C0810911D080115110581F4208131815D
:10359000820F931F20911A0830911B0828173907B2
:1035A00079F5F0931B08E0931A0871C0D80140E048
:1035B00050E0AE17BF0750F412962D913C9113972F
:1035C000AD012115310509F1D901F3CF9D01DA01D2
:1035D0003383228360817181860F971F821793073F
:1035E00069F4EC0128813981260F371F2E5F3F4F88
:1035F000318320838A819B8193838283452B29F4A5
:10360000F0931D08E0931C0842C01396FC93EE93C0
:103610001297ED01499159919E01240F351FE21730
:10362000F30771F480819181840F951F02961196A2
:103630009C938E938281938113969C938E93129781
:10364000E0E0F0E0D80112968D919C9113970097DD
:1036500019F0F8018C01F6CF8D919C9198012E5FA5
:103660003F4F820F931F20911A0830911B08281793
:10367000390769F4309729F410921D0810921C083C
:1036800002C01382128210931B0800931A08DF9164
:10369000CF911F910F910895CF92DF92EF92FF92F9
:1036A0000F931F93CF93DF936C01EB017B01E40E2B
:1036B000F51E00E010E0CE15DF0561F06991D6013E
:1036C000ED91FC910190F081E02DC6010995080F64
:1036D000191FF1CFC801DF91CF911F910F91FF907A
:1036E000EF90DF90CF9008955058BB27AA270E94F3
:1036F0008C1B0C94061D0E94F81C38F00E94FF1CC5
:1037000020F039F49F3F19F426F40C94F51C0EF4C4
:10371000E095E7FB0C94EF1CE92F0E94171D58F36E
:10372000BA17620773078407950720F079F4A6F5A6
:103730000C94391D0EF4E0950B2EBA2FA02D0B0121
:10374000B90190010C01CA01A0011124FF27591BE6
:1037500099F0593F50F4503E68F11A16F040A22FEC
:10376000232F342F4427585FF3CF4695379527955D
:10377000A795F0405395C9F77EF41F16BA0B620B5C
:10378000730B840BBAF09150A1F0FF0FBB1F661FA3
:10379000771F881FC2F70EC0BA0F621F731F841FE6
:1037A00048F4879577956795B795F7959E3F08F00C
:1037B000B0CF9395880F08F09927EE0F97958795CE
:1037C00008950E94CB1C08F481E008950E94FA1B22
:1037D0000C94061D0E94FF1C58F00E94F81C40F03B
:1037E00029F45F3F29F00C94EF1C51110C943A1D01
:1037F0000C94F51C0E94171D68F39923B1F355230F
:1038000091F3951B550BBB27AA27621773078407F3
:1038100038F09F5F5F4F220F331F441FAA1FA9F389
:1038200035D00E2E3AF0E0E832D091505040E69577
:10383000001CCAF72BD0FE2F29D0660F771F881FD8
:10384000BB1F261737074807AB07B0E809F0BB0BCB
:10385000802DBF01FF2793585F4F3AF09E3F5105DF
:1038600078F00C94EF1C0C943A1D5F3FE4F3983E03
:10387000D4F3869577956795B795F7959F5FC9F7C8
:10388000880F911D9695879597F90895E1E0660F49
:10389000771F881FBB1F621773078407BA0720F0C2
:1038A000621B730B840BBA0BEE1F88F7E09508952B
:1038B0000E945F1C6894B1110C943A1D08950E94F7
:1038C0001F1D88F09F5798F0B92F9927B751B0F076
:1038D000E1F0660F771F881F991F1AF0BA95C9F794
:1038E00014C0B13091F00E94391DB1E008950C94DC
:1038F000391D672F782F8827B85F39F0B93FCCF38F
:10390000869577956795B395D9F73EF49095809510
:10391000709561957F4F8F4F9F4F0895E89409C030
:1039200097FB3EF490958095709561957F4F8F4FF2
:103930009F4F9923A9F0F92F96E9BB279395F69508
:10394000879577956795B795F111F8CFFAF4BB0F86
:1039500011F460FF1BC06F5F7F4F8F4F9F4F16C0EA
:10396000882311F096E911C0772321F09EE8872F74
:10397000762F05C0662371F096E8862F70E060E030
:103980002AF09A95660F771F881FDAF7880F9695A9
:10399000879597F90895990F0008550FAA0BE0E84D
:1039A000FEEF16161706E807F907C0F01216130601
:1039B000E407F50798F0621B730B840B950B39F441
:1039C0000A2661F0232B242B252B21F408950A26A7
:1039D00009F4A140A6958FEF811D811D089597F9E7
:1039E0009F6780E870E060E008959FEF80EC0895A5
:1039F00000240A94161617061806090608950024CE
:103A00000A9412161306140605060895092E039447
:103A1000000C11F4882352F0BB0F40F4BF2B11F4BB
:103A200060FF04C06F5F7F4F8F4F9F4F089557FD1A
:103A30009058440F551F59F05F3F71F04795880F1C
:103A400097FB991F61F09F3F79F0879508951216B3
:103A500013061406551FF2CF4695F1DF08C016165F
:103A600017061806991FF1CF869571056105089410
:103A70000895E894BB2766277727CB0197F9089527
:103A80000E94CB1C08F48FEF08950E94581D0C94DF
:103A9000061D0E94F81C38F00E94FF1C20F09523A0
:103AA00011F00C94EF1C0C94F51C11240C943A1D8D
:103AB0000E94171D70F3959FC1F3950F50E0551F9D
:103AC000629FF001729FBB27F00DB11D639FAA2773
:103AD000F00DB11DAA1F649F6627B00DA11D661FC2
:103AE000829F2227B00DA11D621F739FB00DA11DE3
:103AF000621F839FA00D611D221F749F3327A00D9D
:103B0000611D231F849F600D211D822F762F6A2F38
:103B100011249F5750409AF0F1F088234AF0EE0F9D
:103B2000FF1FBB1F661F771F881F91505040A9F7CA
:103B30009E3F510580F00C94EF1C0C943A1D5F3FA2
:103B4000E4F3983ED4F3869577956795B795F79506
:103B5000E7959F5FC1F7FE2B880F911D969587957E
:103B600097F90895DB018F939F930E94231EBF91C5
:103B7000AF91A29F800D911DA39F900DB29F900DBC
:103B800011240895991B79E004C0991F961708F035
:103B9000961B881F7A95C9F78095089597FB072E85
:103BA00016F4009407D077FD09D00E942E1E07FC62
:103BB00005D03EF4909581959F4F0895709561953D
:103BC0007F4F0895A1E21A2EAA1BBB1BFD010DC059
:103BD000AA1FBB1FEE1FFF1FA217B307E407F507BD
:103BE00020F0A21BB30BE40BF50B661F771F881F99
:103BF000991F1A9469F760957095809590959B012F
:103C0000AC01BD01CF010895052E97FB1EF4009471
:103C10000E941B1E57FD07D00E94E21D07FC03D027
:103C20004EF40C941B1E50954095309521953F4FB6
:103C30004F4F5F4F089590958095709561957F4F98
:103C40008F4F9F4F08950E94481EA59F900DB49FCF
:103C5000900DA49F800D911D11240895AA1BBB1BDC
:103C600051E107C0AA1FBB1FA617B70710F0A61B7C
:103C7000B70B881F991F5A95A9F780959095BC019D
:103C8000CD010895EE0FFF1F0590F491E02D0994EA
:103C9000A29FB001B39FC001A39F700D811D11248D
:103CA000911DB29F700D811D1124911D0895FB017E
:103CB000DC0102C001900D9241505040D8F70895A8
:043CC000F894FFCFA6
:103CC4000000C040CDCCCC3D6F12033B00001E0869
:103CD40080007374645F6D7367732F54696D65003E
:103CE40063643731363663373463353532633331A1
:103CF40031666263633266653561376263323839CF
:103D040000726F7373657269616C5F6D7367732F93
:103D1400546F706963496E666F0030616435316653
:103D2400383866633434383932663863313036387B
:103D34003430373736343630303500726F7373654C
:103D44007269616C5F6D7367732F4C6F67003131FB
:103D54006162643733316332353933333236316338
:103D6400643631383362643132643632393500397D
:103D740066306539386264613635393831393836F8
:103D840064646635336166613761343065343900A3
:103D94007374645F6D7367732F496E7431360038C2
:103DA40035323435383665333466626437636231AC
:103DB40063303863356635663163613065353700A5
:103DC4007374645F6D7367732F4865616465720013
:103DD40032313736646563616563626365373861C0
:103DE40062633362393665663034396661626564AC
:103DF4000061636B65726D616E6E5F6D7367732FC7
:103E040041636B65726D616E6E44726976650033F1
:103E14003531326539316234386436393637346194
:103E24003065383666616466316561383233310035
:103E340061636B65726D616E6E5F6D7367732F4145
:103E4400636B65726D616E6E4472697665537461FD
:103E54006D706564003166643564376635383838AA
:103E640039636566643434643239663636353332E0
:103E74003430643063004D65737361676520667226
:103E84006F6D206465766963652064726F70706518
:103E9400643A206D657373616765206C6172676550
:103EA40072207468616E206275666665722E002FDA
:103EB40072635F73746174650061636B65726D61D5
:103EC4006E6E5F636D6400726F7373657269616CAB
:103ED4005F6D7367732F526571756573745061728A
:103EE400616D00000000008D00B100F700FA0000D1
:103EF400000000DB07CC09FD00000100000000AF5A
:103F04000788080301060100000000E306BC0A0953
:103F1400010C01000000000F011801250128010017
:103F24000000008406E0082B012E0100000000318F
:103F3400018501E901EC0100000000C7069B09EFBF
:103F440001F20100000000B202460EFF0100000071
:103F540000B709F501F901FC01000000009B184CB1
:0A3F64001B44187018541890180040
:00000001FF
